{
  "contractName": "raveenaCoin",
  "abi": [
    {
      "constant": false,
      "inputs": [
        {
          "name": "_name",
          "type": "string"
        },
        {
          "name": "_pin",
          "type": "uint256"
        }
      ],
      "name": "createAccount",
      "outputs": [],
      "payable": false,
      "stateMutability": "nonpayable",
      "type": "function"
    },
    {
      "constant": true,
      "inputs": [
        {
          "name": "_pin",
          "type": "uint256"
        }
      ],
      "name": "checkBalance",
      "outputs": [
        {
          "name": "",
          "type": "uint256"
        }
      ],
      "payable": false,
      "stateMutability": "view",
      "type": "function"
    },
    {
      "constant": false,
      "inputs": [
        {
          "name": "_receiver",
          "type": "address"
        },
        {
          "name": "_amt",
          "type": "uint256"
        },
        {
          "name": "_pin",
          "type": "uint256"
        }
      ],
      "name": "transfer_coin",
      "outputs": [],
      "payable": false,
      "stateMutability": "nonpayable",
      "type": "function"
    }
  ],
  "bytecode": "0x608060405234801561001057600080fd5b506105ce806100206000396000f300608060405260043610610057576000357c0100000000000000000000000000000000000000000000000000000000900463ffffffff16806341d2ad381461005c5780636586ace6146100b35780637f28628614610126575b600080fd5b34801561006857600080fd5b506100b1600480360381019080803573ffffffffffffffffffffffffffffffffffffffff1690602001909291908035906020019092919080359060200190929190505050610167565b005b3480156100bf57600080fd5b50610124600480360381019080803590602001908201803590602001908080601f0160208091040260200160405190810160405280939291908181526020018383808284378201915050505050509192919290803590602001909291905050506102d0565b005b34801561013257600080fd5b50610151600480360381019080803590602001909291905050506103c6565b6040518082815260200191505060405180910390f35b81806000803373ffffffffffffffffffffffffffffffffffffffff1673ffffffffffffffffffffffffffffffffffffffff16815260200190815260200160002060030154101515156101b857600080fd5b826000803373ffffffffffffffffffffffffffffffffffffffff1673ffffffffffffffffffffffffffffffffffffffff16815260200190815260200160002060030154036000803373ffffffffffffffffffffffffffffffffffffffff1673ffffffffffffffffffffffffffffffffffffffff16815260200190815260200160002060030181905550826000808673ffffffffffffffffffffffffffffffffffffffff1673ffffffffffffffffffffffffffffffffffffffff16815260200190815260200160002060030154016000808673ffffffffffffffffffffffffffffffffffffffff1673ffffffffffffffffffffffffffffffffffffffff1681526020019081526020016000206003018190555050505050565b6080604051908101604052803373ffffffffffffffffffffffffffffffffffffffff168152602001838152602001828152602001600a8152506000803373ffffffffffffffffffffffffffffffffffffffff1673ffffffffffffffffffffffffffffffffffffffff16815260200190815260200160002060008201518160000160006101000a81548173ffffffffffffffffffffffffffffffffffffffff021916908373ffffffffffffffffffffffffffffffffffffffff16021790555060208201518160010190805190602001906103aa9291906104fd565b5060408201518160020155606082015181600301559050505050565b60008060003373ffffffffffffffffffffffffffffffffffffffff1673ffffffffffffffffffffffffffffffffffffffff16815260200190815260200160002060000160009054906101000a900473ffffffffffffffffffffffffffffffffffffffff1673ffffffffffffffffffffffffffffffffffffffff163373ffffffffffffffffffffffffffffffffffffffff1614151561046357600080fd5b81806000803373ffffffffffffffffffffffffffffffffffffffff1673ffffffffffffffffffffffffffffffffffffffff168152602001908152602001600020600201541415156104b357600080fd5b6000803373ffffffffffffffffffffffffffffffffffffffff1673ffffffffffffffffffffffffffffffffffffffff16815260200190815260200160002060030154915050919050565b828054600181600116156101000203166002900490600052602060002090601f016020900481019282601f1061053e57805160ff191683800117855561056c565b8280016001018555821561056c579182015b8281111561056b578251825591602001919060010190610550565b5b509050610579919061057d565b5090565b61059f91905b8082111561059b576000816000905550600101610583565b5090565b905600a165627a7a723058208d3e2feedb391e26fd9856dd41343aaf3f1c935d52b1bd0c4c4b2322b164447d0029",
  "source": "pragma solidity >=0.4.21 <0.7.0;\r\n\r\ncontract raveenaCoin{\r\n    struct User{\r\n        address account_address;\r\n        string name;\r\n        uint pin;\r\n        uint amount;\r\n    }\r\n    mapping(address=>User) private users;\r\n    modifier verifyPin(uint _pin){\r\n        require(users[msg.sender].pin==_pin);\r\n        _;\r\n    }\r\n    modifier verifyUser{\r\n        require(msg.sender==users[msg.sender].account_address);\r\n        _;\r\n    }\r\n    modifier verifyBalance(uint _amt){\r\n        require(users[msg.sender].amount>=_amt);\r\n        _;\r\n    }\r\n    function createAccount(string memory _name,uint _pin) public {\r\n        users[msg.sender]=User(msg.sender,_name,_pin,10);\r\n    }\r\n    function checkBalance(uint _pin) view verifyUser verifyPin(_pin) public returns(uint){\r\n        return(users[msg.sender].amount);\r\n    }\r\n    function transfer_coin(address _receiver,uint _amt,uint _pin)  verifyBalance(_amt) public{\r\n        users[msg.sender].amount=users[msg.sender].amount-_amt;\r\n        users[_receiver].amount=users[_receiver].amount+_amt;\r\n    }\r\n    \r\n}",
  "sourcePath": "C:\\Users\\hp\\raveenacoin\\contracts\\raveenacoin.sol",
  "compiler": {
    "name": "solc",
    "version": "0.4.26+commit.4563c3fc.Emscripten.clang"
  },
  "schemaVersion": "2.0.3",
  "updatedAt": "2020-02-26T09:29:39.835Z"
}